{
  "contractName": "ECRecoveryMock",
  "abi": [
    {
      "constant": true,
      "inputs": [],
      "name": "addrRecovered",
      "outputs": [
        {
          "name": "",
          "type": "address"
        }
      ],
      "payable": false,
      "stateMutability": "view",
      "type": "function"
    },
    {
      "constant": false,
      "inputs": [
        {
          "name": "hash",
          "type": "bytes32"
        },
        {
          "name": "sig",
          "type": "bytes"
        }
      ],
      "name": "recover",
      "outputs": [
        {
          "name": "",
          "type": "address"
        }
      ],
      "payable": false,
      "stateMutability": "nonpayable",
      "type": "function"
    }
  ],
  "bytecode": "0x6060604052341561000f57600080fd5b6102fd8061001e6000396000f30060606040526004361061004c576000357c0100000000000000000000000000000000000000000000000000000000900463ffffffff16806319045a251461005157806375f2566e146100fb575b600080fd5b341561005c57600080fd5b6100b960048080356000191690602001909190803590602001908201803590602001908080601f01602080910402602001604051908101604052809392919081815260200183838082843782019150505050505091905050610150565b604051808273ffffffffffffffffffffffffffffffffffffffff1673ffffffffffffffffffffffffffffffffffffffff16815260200191505060405180910390f35b341561010657600080fd5b61010e6101ae565b604051808273ffffffffffffffffffffffffffffffffffffffff1673ffffffffffffffffffffffffffffffffffffffff16815260200191505060405180910390f35b60006101698284600019166101d390919063ffffffff16565b6000806101000a81548173ffffffffffffffffffffffffffffffffffffffff021916908373ffffffffffffffffffffffffffffffffffffffff16021790555092915050565b6000809054906101000a900473ffffffffffffffffffffffffffffffffffffffff1681565b600080600080604185511415156101ed57600093506102c8565b6020850151925060408501519150606085015160001a9050601b8160ff16101561021857601b810190505b601b8160ff16141580156102305750601c8160ff1614155b1561023e57600093506102c8565b600186828585604051600081526020016040526000604051602001526040518085600019166000191681526020018460ff1660ff16815260200183600019166000191681526020018260001916600019168152602001945050505050602060405160208103908084039060008661646e5a03f115156102bc57600080fd5b50506020604051035193505b505050929150505600a165627a7a72305820bc052608d709296d213e0e8657bbffe8bb602a8ca0c4db969482e8ccc0aaf14e0029",
  "source": "pragma solidity ^0.4.18;\n\n\nimport \"../ECRecovery.sol\";\n\n\ncontract ECRecoveryMock {\n  using ECRecovery for bytes32;\n\n  address public addrRecovered;\n\n  function recover(bytes32 hash, bytes sig) public returns (address) {\n    addrRecovered = hash.recover(sig);\n  }\n\n}\n",
  "sourcePath": "/Users/kiendn/coding/tutorial/truffle/deploy_contract_without_cmd/contracts/mocks/ECRecoveryMock.sol",
  "compiler": {
    "name": "solc",
    "version": "0.4.19+commit.c4cbbb05.Emscripten.clang"
  },
  "schemaVersion": "2.0.0",
  "updatedAt": "2018-04-13T08:54:57.314Z"
}