{
  "contractName": "ERC721Holder",
  "abi": [
    {
      "constant": false,
      "inputs": [
        {
          "name": "",
          "type": "address"
        },
        {
          "name": "",
          "type": "uint256"
        },
        {
          "name": "",
          "type": "bytes"
        }
      ],
      "name": "onERC721Received",
      "outputs": [
        {
          "name": "",
          "type": "bytes4"
        }
      ],
      "payable": false,
      "stateMutability": "nonpayable",
      "type": "function"
    }
  ],
  "bytecode": "0x6060604052341561000f57600080fd5b6101788061001e6000396000f300606060405260043610610041576000357c0100000000000000000000000000000000000000000000000000000000900463ffffffff168063f0b9e5ba14610046575b600080fd5b341561005157600080fd5b6100c9600480803573ffffffffffffffffffffffffffffffffffffffff1690602001909190803590602001909190803590602001908201803590602001908080601f0160208091040260200160405190810160405280939291908181526020018383808284378201915050505050509190505061011d565b60405180827bffffffffffffffffffffffffffffffffffffffffffffffffffffffff19167bffffffffffffffffffffffffffffffffffffffffffffffffffffffff1916815260200191505060405180910390f35b600063f0b9e5ba7c010000000000000000000000000000000000000000000000000000000002905093925050505600a165627a7a72305820c10ecbae5759cdd187b74a0ed4eb980ea5ff66e3fc6554ab6dafc5d060d0f07e0029",
  "source": "pragma solidity ^0.4.18;\n\nimport \"./ERC721Receiver.sol\";\n\n\ncontract ERC721Holder is ERC721Receiver {\n  function onERC721Received(address, uint256, bytes) public returns(bytes4) {\n    return ERC721_RECEIVED;\n  }\n}\n",
  "sourcePath": "/Users/kiendn/coding/tutorial/truffle/deploy_contract_without_cmd/contracts/token/ERC721/ERC721Holder.sol",
  "compiler": {
    "name": "solc",
    "version": "0.4.19+commit.c4cbbb05.Emscripten.clang"
  },
  "schemaVersion": "2.0.0",
  "updatedAt": "2018-04-13T08:54:57.383Z"
}