{
  "contractName": "Event",
  "abi": [
    {
      "anonymous": false,
      "inputs": [
        {
          "indexed": false,
          "name": "_type",
          "type": "bytes32"
        },
        {
          "indexed": false,
          "name": "_amount",
          "type": "uint256"
        },
        {
          "indexed": false,
          "name": "_from",
          "type": "address"
        },
        {
          "indexed": false,
          "name": "_to",
          "type": "address"
        }
      ],
      "name": "OnDeposit",
      "type": "event"
    },
    {
      "constant": false,
      "inputs": [
        {
          "name": "_type",
          "type": "string"
        },
        {
          "name": "_amount",
          "type": "uint256"
        },
        {
          "name": "_from",
          "type": "address"
        },
        {
          "name": "_to",
          "type": "address"
        }
      ],
      "name": "onDeposit",
      "outputs": [],
      "payable": false,
      "stateMutability": "nonpayable",
      "type": "function"
    },
    {
      "constant": false,
      "inputs": [
        {
          "name": "source",
          "type": "string"
        }
      ],
      "name": "stringToBytes32",
      "outputs": [
        {
          "name": "result",
          "type": "bytes32"
        }
      ],
      "payable": false,
      "stateMutability": "nonpayable",
      "type": "function"
    }
  ],
  "bytecode": "0x6060604052341561000f57600080fd5b61029c8061001e6000396000f30060606040526004361061004c576000357c0100000000000000000000000000000000000000000000000000000000900463ffffffff1680638b9c7e6c14610051578063cfb51928146100f5575b600080fd5b341561005c57600080fd5b6100f3600480803590602001908201803590602001908080601f0160208091040260200160405190810160405280939291908181526020018383808284378201915050505050509190803590602001909190803573ffffffffffffffffffffffffffffffffffffffff1690602001909190803573ffffffffffffffffffffffffffffffffffffffff1690602001909190505061016e565b005b341561010057600080fd5b610150600480803590602001908201803590602001908080601f0160208091040260200160405190810160405280939291908181526020018383808284378201915050505050509190505061022b565b60405180826000191660001916815260200191505060405180910390f35b7fe67f3a18aba846616db20169791e7ce0a5b06ac67d48774f32889ad04708096c6101988561022b565b8484846040518085600019166000191681526020018481526020018373ffffffffffffffffffffffffffffffffffffffff1673ffffffffffffffffffffffffffffffffffffffff1681526020018273ffffffffffffffffffffffffffffffffffffffff1673ffffffffffffffffffffffffffffffffffffffff16815260200194505050505060405180910390a150505050565b600061023561025c565b82905060008151141561024e5760006001029150610256565b602083015191505b50919050565b6020604051908101604052806000815250905600a165627a7a72305820fb4a0aec3db0cb2594e23d10aa24b4e1296429225793d846e972d1103275c7070029",
  "source": "pragma solidity ^0.4.18;\n\n\ncontract Event {\n\n\tevent OnDeposit(bytes32 _type, uint256 _amount, address _from, address _to);\n\n\tfunction onDeposit(string _type, uint256 _amount, address _from, address _to) public {\n\t\tOnDeposit(stringToBytes32(_type), _amount, _from, _to);\n\t}\n\n\tfunction stringToBytes32(string memory source) returns (bytes32 result) {\n\t    bytes memory tempEmptyStringTest = bytes(source);\n\t    if (tempEmptyStringTest.length == 0) {\n\t        return 0x0;\n\t    }\n\n\t    assembly {\n\t        result := mload(add(source, 32))\n\t    }\n\t}\n\n}",
  "sourcePath": "/Users/kiendn/coding/tutorial/truffle/deploy_contract_without_cmd/contracts/Event.sol",
  "compiler": {
    "name": "solc",
    "version": "0.4.19+commit.c4cbbb05.Emscripten.clang"
  },
  "schemaVersion": "2.0.0",
  "updatedAt": "2018-04-18T17:58:31.145Z"
}