{
  "contractName": "Event",
  "abi": [
    {
      "anonymous": false,
      "inputs": [
        {
          "indexed": false,
          "name": "_event",
          "type": "uint256"
        },
        {
          "indexed": false,
          "name": "_type",
          "type": "uint256"
        },
        {
          "indexed": false,
          "name": "_from",
          "type": "address"
        },
        {
          "indexed": false,
          "name": "_to",
          "type": "address"
        },
        {
          "indexed": false,
          "name": "_amount",
          "type": "uint256"
        }
      ],
      "name": "OnChange",
      "type": "event"
    },
    {
      "constant": false,
      "inputs": [
        {
          "name": "_event",
          "type": "uint256"
        },
        {
          "name": "_type",
          "type": "uint256"
        },
        {
          "name": "_from",
          "type": "address"
        },
        {
          "name": "_to",
          "type": "address"
        },
        {
          "name": "_amount",
          "type": "uint256"
        }
      ],
      "name": "onChange",
      "outputs": [],
      "payable": false,
      "stateMutability": "nonpayable",
      "type": "function"
    }
  ],
  "bytecode": "0x6060604052341561000f57600080fd5b61019b8061001e6000396000f300606060405260043610610041576000357c0100000000000000000000000000000000000000000000000000000000900463ffffffff16806350cd429014610046575b600080fd5b341561005157600080fd5b6100b7600480803590602001909190803590602001909190803573ffffffffffffffffffffffffffffffffffffffff1690602001909190803573ffffffffffffffffffffffffffffffffffffffff169060200190919080359060200190919050506100b9565b005b7f9977f9ff9e03cf7f8b325076da660f73cddaae38b0bcc25faf7a557eb670c9ab8585858585604051808681526020018581526020018473ffffffffffffffffffffffffffffffffffffffff1673ffffffffffffffffffffffffffffffffffffffff1681526020018373ffffffffffffffffffffffffffffffffffffffff1673ffffffffffffffffffffffffffffffffffffffff1681526020018281526020019550505050505060405180910390a150505050505600a165627a7a723058205a05a93e61e158380a6df410379aa81c26ba4bb5e5a4407cb49d80133088abfa0029",
  "source": "pragma solidity ^0.4.18;\n\n\ncontract Event {\n\n\tevent OnChange(uint256 _event, uint256 _type, address _from, address _to, uint256 _amount);\n\n\tfunction onChange(uint256 _event, uint256 _type, address _from, address _to, uint256 _amount) public {\n\t\tOnChange(_event, _type, _from, _to, _amount);\n\t}\n\n}",
  "sourcePath": "/Users/kiendn/coding/tutorial/truffle/deploy_contract_without_cmd/contracts/Event.sol",
  "compiler": {
    "name": "solc",
    "version": "0.4.19+commit.c4cbbb05.Emscripten.clang"
  },
  "schemaVersion": "2.0.0",
  "updatedAt": "2018-04-19T06:53:02.539Z"
}