{
  "contractName": "InsecureTargetMock",
  "abi": [
    {
      "constant": false,
      "inputs": [],
      "name": "checkInvariant",
      "outputs": [
        {
          "name": "",
          "type": "bool"
        }
      ],
      "payable": false,
      "stateMutability": "nonpayable",
      "type": "function"
    }
  ],
  "bytecode": "0x60606040523415600e57600080fd5b60a28061001c6000396000f300606060405260043610603f576000357c0100000000000000000000000000000000000000000000000000000000900463ffffffff168063e79487da146044575b600080fd5b3415604e57600080fd5b6054606e565b604051808215151515815260200191505060405180910390f35b6000809050905600a165627a7a72305820943da192996af8a4a3cae9bd2eb781d64709189a56031124f9952107c02f49990029",
  "source": "pragma solidity ^0.4.18;\n\nimport {Bounty, Target} from \"../../contracts/Bounty.sol\";\n\n\ncontract InsecureTargetMock is Target {\n  function checkInvariant() public returns(bool) {\n    return false;\n  }\n}\n\n\ncontract InsecureTargetBounty is Bounty {\n  function deployContract() internal returns (address) {\n    return new InsecureTargetMock();\n  }\n}\n",
  "sourcePath": "/Users/kiendn/coding/tutorial/truffle/deploy_contract_without_cmd/contracts/mocks/InsecureTargetBounty.sol",
  "compiler": {
    "name": "solc",
    "version": "0.4.19+commit.c4cbbb05.Emscripten.clang"
  },
  "schemaVersion": "2.0.0",
  "updatedAt": "2018-04-13T08:54:57.321Z"
}