{
  "contractName": "LimitBalanceMock",
  "abi": [
    {
      "constant": true,
      "inputs": [],
      "name": "limit",
      "outputs": [
        {
          "name": "",
          "type": "uint256"
        }
      ],
      "payable": false,
      "stateMutability": "view",
      "type": "function"
    },
    {
      "constant": false,
      "inputs": [],
      "name": "limitedDeposit",
      "outputs": [],
      "payable": true,
      "stateMutability": "payable",
      "type": "function"
    }
  ],
  "bytecode": "0x60606040526103e8806000819055505060d78061001d6000396000f3006060604052600436106049576000357c0100000000000000000000000000000000000000000000000000000000900463ffffffff16806386f3d0cd14604e578063a4d66daf146056575b600080fd5b6054607c565b005b3415606057600080fd5b606660a5565b6040518082815260200191505060405180910390f35b6000543073ffffffffffffffffffffffffffffffffffffffff16311115151560a357600080fd5b565b600054815600a165627a7a723058205123df043f16b369102d5b0f464e023b6a0bc22d4eadc71e716e867515e8de920029",
  "source": "pragma solidity ^0.4.18;\n\n\nimport \"../LimitBalance.sol\";\n\n\n// mock class using LimitBalance\ncontract LimitBalanceMock is LimitBalance(1000) {\n\n  function limitedDeposit() public payable limitedPayable {\n  }\n\n}\n",
  "sourcePath": "/Users/kiendn/coding/tutorial/truffle/deploy_contract_without_cmd/contracts/mocks/LimitBalanceMock.sol",
  "compiler": {
    "name": "solc",
    "version": "0.4.19+commit.c4cbbb05.Emscripten.clang"
  },
  "schemaVersion": "2.0.0",
  "updatedAt": "2018-04-13T08:54:57.321Z"
}