{
  "contractName": "MerkleProof",
  "abi": [
    {
      "constant": true,
      "inputs": [
        {
          "name": "_proof",
          "type": "bytes32[]"
        },
        {
          "name": "_root",
          "type": "bytes32"
        },
        {
          "name": "_leaf",
          "type": "bytes32"
        }
      ],
      "name": "verifyProof",
      "outputs": [
        {
          "name": "",
          "type": "bool"
        }
      ],
      "payable": false,
      "stateMutability": "pure",
      "type": "function"
    }
  ],
  "bytecode": "0x6060604052341561000f57600080fd5b6101be8061001e6000396000f300606060405260043610610041576000357c0100000000000000000000000000000000000000000000000000000000900463ffffffff1680634bc935d714610046575b600080fd5b6100ad60048080359060200190820180359060200190808060200260200160405190810160405280939291908181526020018383602002808284378201915050505050509190803560001916906020019091908035600019169060200190919050506100c7565b604051808215151515815260200191505060405180910390f35b600080600080849250600091505b865182101561017b5786828151811015156100ec57fe5b90602001906020020151905080600019168360001916101561013d5782816040518083600019166000191681526020018260001916600019168152602001925050506040518091039020925061016e565b8083604051808360001916600019168152602001826000191660001916815260200192505050604051809103902092505b81806001019250506100d5565b8560001916836000191614935050505093925050505600a165627a7a72305820c5b0ede6c98c8dc1a6f10acddb7a60dd1b7c5fa1d9833ddb95da3af7f082497c0029",
  "source": "pragma solidity ^0.4.18;\n\n\n/*\n * @title MerkleProof\n * @dev Merkle proof verification\n * @note Based on https://github.com/ameensol/merkle-tree-solidity/blob/master/src/MerkleProof.sol\n */\nlibrary MerkleProof {\n  /*\n   * @dev Verifies a Merkle proof proving the existence of a leaf in a Merkle tree. Assumes that each pair of leaves\n   * and each pair of pre-images is sorted.\n   * @param _proof Merkle proof containing sibling hashes on the branch from the leaf to the root of the Merkle tree\n   * @param _root Merkle root\n   * @param _leaf Leaf of Merkle tree\n   */\n  function verifyProof(bytes32[] _proof, bytes32 _root, bytes32 _leaf) public pure returns (bool) {\n    bytes32 computedHash = _leaf;\n\n    for (uint256 i = 0; i < _proof.length; i++) {\n      bytes32 proofElement = _proof[i];\n\n      if (computedHash < proofElement) {\n        // Hash(current computed hash + current element of the proof)\n        computedHash = keccak256(computedHash, proofElement);\n      } else {\n        // Hash(current element of the proof + current computed hash)\n        computedHash = keccak256(proofElement, computedHash);\n      }\n    }\n\n    // Check if the computed hash (root) is equal to the provided root\n    return computedHash == _root;\n  }\n}\n",
  "sourcePath": "/Users/kiendn/coding/tutorial/truffle/deploy_contract_without_cmd/contracts/MerkleProof.sol",
  "compiler": {
    "name": "solc",
    "version": "0.4.19+commit.c4cbbb05.Emscripten.clang"
  },
  "schemaVersion": "2.0.0",
  "updatedAt": "2018-04-13T08:54:57.283Z"
}