{
  "contractName": "PullPaymentMock",
  "abi": [
    {
      "constant": true,
      "inputs": [],
      "name": "totalPayments",
      "outputs": [
        {
          "name": "",
          "type": "uint256"
        }
      ],
      "payable": false,
      "stateMutability": "view",
      "type": "function"
    },
    {
      "constant": false,
      "inputs": [],
      "name": "withdrawPayments",
      "outputs": [],
      "payable": false,
      "stateMutability": "nonpayable",
      "type": "function"
    },
    {
      "constant": true,
      "inputs": [
        {
          "name": "",
          "type": "address"
        }
      ],
      "name": "payments",
      "outputs": [
        {
          "name": "",
          "type": "uint256"
        }
      ],
      "payable": false,
      "stateMutability": "view",
      "type": "function"
    },
    {
      "inputs": [],
      "payable": true,
      "stateMutability": "payable",
      "type": "constructor"
    },
    {
      "constant": false,
      "inputs": [
        {
          "name": "dest",
          "type": "address"
        },
        {
          "name": "amount",
          "type": "uint256"
        }
      ],
      "name": "callSend",
      "outputs": [],
      "payable": false,
      "stateMutability": "nonpayable",
      "type": "function"
    }
  ],
  "bytecode": "0x6060604052610394806100136000396000f300606060405260043610610061576000357c0100000000000000000000000000000000000000000000000000000000900463ffffffff1680625b4487146100665780636103d70b1461008f578063752c5628146100a4578063e2982c21146100e6575b600080fd5b341561007157600080fd5b610079610133565b6040518082815260200191505060405180910390f35b341561009a57600080fd5b6100a2610139565b005b34156100af57600080fd5b6100e4600480803573ffffffffffffffffffffffffffffffffffffffff16906020019091908035906020019091905050610259565b005b34156100f157600080fd5b61011d600480803573ffffffffffffffffffffffffffffffffffffffff16906020019091905050610267565b6040518082815260200191505060405180910390f35b60015481565b6000803391506000808373ffffffffffffffffffffffffffffffffffffffff1673ffffffffffffffffffffffffffffffffffffffff1681526020019081526020016000205490506000811415151561019057600080fd5b803073ffffffffffffffffffffffffffffffffffffffff1631101515156101b657600080fd5b6101cb8160015461027f90919063ffffffff16565b60018190555060008060008473ffffffffffffffffffffffffffffffffffffffff1673ffffffffffffffffffffffffffffffffffffffff168152602001908152602001600020819055508173ffffffffffffffffffffffffffffffffffffffff166108fc829081150290604051600060405180830381858888f19350505050151561025557600080fd5b5050565b6102638282610298565b5050565b60006020528060005260406000206000915090505481565b600082821115151561028d57fe5b818303905092915050565b6102e9816000808573ffffffffffffffffffffffffffffffffffffffff1673ffffffffffffffffffffffffffffffffffffffff1681526020019081526020016000205461034a90919063ffffffff16565b6000808473ffffffffffffffffffffffffffffffffffffffff1673ffffffffffffffffffffffffffffffffffffffff168152602001908152602001600020819055506103408160015461034a90919063ffffffff16565b6001819055505050565b600080828401905083811015151561035e57fe5b80915050929150505600a165627a7a723058208b77792edac2e74bc0f6c0ef639f754f43ffa25f7716ef45a0b014feac8ffed70029",
  "source": "pragma solidity ^0.4.18;\n\n\nimport \"../payment/PullPayment.sol\";\n\n\n// mock class using PullPayment\ncontract PullPaymentMock is PullPayment {\n\n  function PullPaymentMock() public payable { }\n\n  // test helper function to call asyncSend\n  function callSend(address dest, uint256 amount) public {\n    asyncSend(dest, amount);\n  }\n\n}\n",
  "sourcePath": "/Users/kiendn/coding/tutorial/truffle/deploy_contract_without_cmd/contracts/mocks/PullPaymentMock.sol",
  "compiler": {
    "name": "solc",
    "version": "0.4.19+commit.c4cbbb05.Emscripten.clang"
  },
  "schemaVersion": "2.0.0",
  "updatedAt": "2018-04-13T08:54:57.325Z"
}