{
  "contractName": "RBACMock",
  "abi": [
    {
      "constant": true,
      "inputs": [
        {
          "name": "addr",
          "type": "address"
        },
        {
          "name": "roleName",
          "type": "string"
        }
      ],
      "name": "checkRole",
      "outputs": [],
      "payable": false,
      "stateMutability": "view",
      "type": "function"
    },
    {
      "constant": true,
      "inputs": [
        {
          "name": "addr",
          "type": "address"
        },
        {
          "name": "roleName",
          "type": "string"
        }
      ],
      "name": "hasRole",
      "outputs": [
        {
          "name": "",
          "type": "bool"
        }
      ],
      "payable": false,
      "stateMutability": "view",
      "type": "function"
    },
    {
      "constant": false,
      "inputs": [
        {
          "name": "addr",
          "type": "address"
        },
        {
          "name": "roleName",
          "type": "string"
        }
      ],
      "name": "adminRemoveRole",
      "outputs": [],
      "payable": false,
      "stateMutability": "nonpayable",
      "type": "function"
    },
    {
      "constant": false,
      "inputs": [
        {
          "name": "addr",
          "type": "address"
        },
        {
          "name": "roleName",
          "type": "string"
        }
      ],
      "name": "adminAddRole",
      "outputs": [],
      "payable": false,
      "stateMutability": "nonpayable",
      "type": "function"
    },
    {
      "constant": true,
      "inputs": [],
      "name": "ROLE_ADMIN",
      "outputs": [
        {
          "name": "",
          "type": "string"
        }
      ],
      "payable": false,
      "stateMutability": "view",
      "type": "function"
    },
    {
      "inputs": [
        {
          "name": "_advisors",
          "type": "address[]"
        }
      ],
      "payable": false,
      "stateMutability": "nonpayable",
      "type": "constructor"
    },
    {
      "anonymous": false,
      "inputs": [
        {
          "indexed": false,
          "name": "addr",
          "type": "address"
        },
        {
          "indexed": false,
          "name": "roleName",
          "type": "string"
        }
      ],
      "name": "RoleAdded",
      "type": "event"
    },
    {
      "anonymous": false,
      "inputs": [
        {
          "indexed": false,
          "name": "addr",
          "type": "address"
        },
        {
          "indexed": false,
          "name": "roleName",
          "type": "string"
        }
      ],
      "name": "RoleRemoved",
      "type": "event"
    },
    {
      "constant": true,
      "inputs": [],
      "name": "onlyAdminsCanDoThis",
      "outputs": [],
      "payable": false,
      "stateMutability": "view",
      "type": "function"
    },
    {
      "constant": true,
      "inputs": [],
      "name": "onlyAdvisorsCanDoThis",
      "outputs": [],
      "payable": false,
      "stateMutability": "view",
      "type": "function"
    },
    {
      "constant": true,
      "inputs": [],
      "name": "eitherAdminOrAdvisorCanDoThis",
      "outputs": [],
      "payable": false,
      "stateMutability": "view",
      "type": "function"
    },
    {
      "constant": true,
      "inputs": [],
      "name": "nobodyCanDoThis",
      "outputs": [],
      "payable": false,
      "stateMutability": "view",
      "type": "function"
    },
    {
      "constant": false,
      "inputs": [
        {
          "name": "_addr",
          "type": "address"
        }
      ],
      "name": "removeAdvisor",
      "outputs": [],
      "payable": false,
      "stateMutability": "nonpayable",
      "type": "function"
    }
  ],
  "bytecode": "0x606060405234156200001057600080fd5b60405162000efc38038062000efc83398101604052808051820191905050600062000085336040805190810160405280600581526020017f61646d696e0000000000000000000000000000000000000000000000000000008152506200016c6401000000000262000983176401000000009004565b620000da336040805190810160405280600781526020017f61647669736f72000000000000000000000000000000000000000000000000008152506200016c6401000000000262000983176401000000009004565b600090505b81518110156200016457620001568282815181101515620000fc57fe5b906020019060200201516040805190810160405280600781526020017f61647669736f72000000000000000000000000000000000000000000000000008152506200016c6401000000000262000983176401000000009004565b8080600101915050620000df565b505062000330565b620001fb826000836040518082805190602001908083835b602083101515620001ab578051825260208201915060208101905060208303925062000184565b6001836020036101000a0380198251168184511680821785525050505050509050019150509081526020016040518091039020620002d26401000000000262000b32179091906401000000009004565b7fbfec83d64eaa953f2708271a023ab9ee82057f8f3578d548c1a4ba0b5b7004898282604051808373ffffffffffffffffffffffffffffffffffffffff1673ffffffffffffffffffffffffffffffffffffffff16815260200180602001828103825283818151815260200191508051906020019080838360005b838110156200029257808201518184015260208101905062000275565b50505050905090810190601f168015620002c05780820380516001836020036101000a031916815260200191505b50935050505060405180910390a15050565b60018260000160008373ffffffffffffffffffffffffffffffffffffffff1673ffffffffffffffffffffffffffffffffffffffff16815260200190815260200160002060006101000a81548160ff0219169083151502179055505050565b610bbc80620003406000396000f3006060604052600436106100a4576000357c0100000000000000000000000000000000000000000000000000000000900463ffffffff1680630988ca8c146100a95780630eeccb841461012557806316aabcbd1461015e578063217fe6c614610173578063420d0ba4146102075780634fd3d1251461021c57806363a5bc711461023157806388cee87e14610246578063b25fa92c146102c2578063d391014b1461033e575b600080fd5b34156100b457600080fd5b610123600480803573ffffffffffffffffffffffffffffffffffffffff1690602001909190803590602001908201803590602001908080601f016020809104026020016040519081016040528093929190818152602001838380828437820191505050505050919050506103cc565b005b341561013057600080fd5b61015c600480803573ffffffffffffffffffffffffffffffffffffffff1690602001909190505061044d565b005b341561016957600080fd5b61017161050d565b005b341561017e57600080fd5b6101ed600480803573ffffffffffffffffffffffffffffffffffffffff1690602001909190803590602001908201803590602001908080601f01602080910402602001604051908101604052809392919081815260200183838082843782019150505050505091905050610550565b604051808215151515815260200191505060405180910390f35b341561021257600080fd5b61021a6105d7565b005b341561022757600080fd5b61022f61061a565b005b341561023c57600080fd5b61024461065b565b005b341561025157600080fd5b6102c0600480803573ffffffffffffffffffffffffffffffffffffffff1690602001909190803590602001908201803590602001908080601f016020809104026020016040519081016040528093929190818152602001838380828437820191505050505050919050506106ed565b005b34156102cd57600080fd5b61033c600480803573ffffffffffffffffffffffffffffffffffffffff1690602001909190803590602001908201803590602001908080601f0160208091040260200160405190810160405280939291908181526020018383808284378201915050505050509190505061073a565b005b341561034957600080fd5b610351610787565b6040518080602001828103825283818151815260200191508051906020019080838360005b83811015610391578082015181840152602081019050610376565b50505050905090810190601f1680156103be5780820380516001836020036101000a031916815260200191505b509250505060405180910390f35b610449826000836040518082805190602001908083835b60208310151561040857805182526020820191506020810190506020830392506103e3565b6001836020036101000a03801982511681845116808217855250505050505090500191505090815260200160405180910390206107c090919063ffffffff16565b5050565b61048c336040805190810160405280600581526020017f61646d696e0000000000000000000000000000000000000000000000000000008152506103cc565b6104cb816040805190810160405280600781526020017f61647669736f72000000000000000000000000000000000000000000000000008152506103cc565b61050a816040805190810160405280600781526020017f61647669736f72000000000000000000000000000000000000000000000000008152506107d9565b50565b6040805190810160405280600781526020017f61647669736f720000000000000000000000000000000000000000000000000081525061054d33826103cc565b50565b60006105cf836000846040518082805190602001908083835b60208310151561058e5780518252602082019150602081019050602083039250610569565b6001836020036101000a038019825116818451168082178552505050505050905001915050908152602001604051809103902061092a90919063ffffffff16565b905092915050565b6040805190810160405280600781526020017f756e6b6e6f776e0000000000000000000000000000000000000000000000000081525061061733826103cc565b50565b610659336040805190810160405280600581526020017f61646d696e0000000000000000000000000000000000000000000000000000008152506103cc565b565b61069a336040805190810160405280600581526020017f61646d696e000000000000000000000000000000000000000000000000000000815250610550565b806106e057506106df336040805190810160405280600781526020017f61647669736f7200000000000000000000000000000000000000000000000000815250610550565b5b15156106eb57600080fd5b565b61072c336040805190810160405280600581526020017f61646d696e0000000000000000000000000000000000000000000000000000008152506103cc565b61073682826107d9565b5050565b610779336040805190810160405280600581526020017f61646d696e0000000000000000000000000000000000000000000000000000008152506103cc565b6107838282610983565b5050565b6040805190810160405280600581526020017f61646d696e00000000000000000000000000000000000000000000000000000081525081565b6107ca828261092a565b15156107d557600080fd5b5050565b610856826000836040518082805190602001908083835b60208310151561081557805182526020820191506020810190506020830392506107f0565b6001836020036101000a0380198251168184511680821785525050505050509050019150509081526020016040518091039020610ad490919063ffffffff16565b7fd211483f91fc6eff862467f8de606587a30c8fc9981056f051b897a418df803a8282604051808373ffffffffffffffffffffffffffffffffffffffff1673ffffffffffffffffffffffffffffffffffffffff16815260200180602001828103825283818151815260200191508051906020019080838360005b838110156108eb5780820151818401526020810190506108d0565b50505050905090810190601f1680156109185780820380516001836020036101000a031916815260200191505b50935050505060405180910390a15050565b60008260000160008373ffffffffffffffffffffffffffffffffffffffff1673ffffffffffffffffffffffffffffffffffffffff16815260200190815260200160002060009054906101000a900460ff16905092915050565b610a00826000836040518082805190602001908083835b6020831015156109bf578051825260208201915060208101905060208303925061099a565b6001836020036101000a0380198251168184511680821785525050505050509050019150509081526020016040518091039020610b3290919063ffffffff16565b7fbfec83d64eaa953f2708271a023ab9ee82057f8f3578d548c1a4ba0b5b7004898282604051808373ffffffffffffffffffffffffffffffffffffffff1673ffffffffffffffffffffffffffffffffffffffff16815260200180602001828103825283818151815260200191508051906020019080838360005b83811015610a95578082015181840152602081019050610a7a565b50505050905090810190601f168015610ac25780820380516001836020036101000a031916815260200191505b50935050505060405180910390a15050565b60008260000160008373ffffffffffffffffffffffffffffffffffffffff1673ffffffffffffffffffffffffffffffffffffffff16815260200190815260200160002060006101000a81548160ff0219169083151502179055505050565b60018260000160008373ffffffffffffffffffffffffffffffffffffffff1673ffffffffffffffffffffffffffffffffffffffff16815260200190815260200160002060006101000a81548160ff02191690831515021790555050505600a165627a7a723058202304f5a03b4a0cf3786cb61b060169cbffd7839dd0f6c82faf882b3ac5d4d1c90029",
  "source": "pragma solidity ^0.4.8;\n\nimport \"../ownership/rbac/RBACWithAdmin.sol\";\n\n\ncontract RBACMock is RBACWithAdmin {\n\n  string constant ROLE_ADVISOR = \"advisor\";\n\n  modifier onlyAdminOrAdvisor()\n  {\n    require(\n      hasRole(msg.sender, ROLE_ADMIN) ||\n      hasRole(msg.sender, ROLE_ADVISOR)\n    );\n    _;\n  }\n\n  function RBACMock(address[] _advisors)\n    public\n  {\n    addRole(msg.sender, ROLE_ADVISOR);\n\n    for (uint256 i = 0; i < _advisors.length; i++) {\n      addRole(_advisors[i], ROLE_ADVISOR);\n    }\n  }\n\n  function onlyAdminsCanDoThis()\n    onlyAdmin\n    view\n    external\n  {\n  }\n\n  function onlyAdvisorsCanDoThis()\n    onlyRole(ROLE_ADVISOR)\n    view\n    external\n  {\n  }\n\n  function eitherAdminOrAdvisorCanDoThis()\n    onlyAdminOrAdvisor\n    view\n    external\n  {\n  }\n\n  function nobodyCanDoThis()\n    onlyRole(\"unknown\")\n    view\n    external\n  {\n  }\n\n  // admins can remove advisor's role\n  function removeAdvisor(address _addr)\n    onlyAdmin\n    public\n  {\n    // revert if the user isn't an advisor\n    //  (perhaps you want to soft-fail here instead?)\n    checkRole(_addr, ROLE_ADVISOR);\n\n    // remove the advisor's role\n    removeRole(_addr, ROLE_ADVISOR);\n  }\n}\n",
  "sourcePath": "/Users/kiendn/coding/tutorial/truffle/deploy_contract_without_cmd/contracts/mocks/RBACMock.sol",
  "compiler": {
    "name": "solc",
    "version": "0.4.19+commit.c4cbbb05.Emscripten.clang"
  },
  "schemaVersion": "2.0.0",
  "updatedAt": "2018-04-13T08:54:57.326Z"
}