{
  "contractName": "SecureTargetMock",
  "abi": [
    {
      "constant": false,
      "inputs": [],
      "name": "checkInvariant",
      "outputs": [
        {
          "name": "",
          "type": "bool"
        }
      ],
      "payable": false,
      "stateMutability": "nonpayable",
      "type": "function"
    }
  ],
  "bytecode": "0x60606040523415600e57600080fd5b60a38061001c6000396000f300606060405260043610603f576000357c0100000000000000000000000000000000000000000000000000000000900463ffffffff168063e79487da146044575b600080fd5b3415604e57600080fd5b6054606e565b604051808215151515815260200191505060405180910390f35b600060019050905600a165627a7a72305820bf5ba3c447652707a92d73a9fec4e63bb87470f4fff087375f3a17f9f70a98800029",
  "source": "pragma solidity ^0.4.18;\n\nimport {Bounty, Target} from \"../../contracts/Bounty.sol\";\n\n\ncontract SecureTargetMock is Target {\n  function checkInvariant() public returns(bool) {\n    return true;\n  }\n}\n\n\ncontract SecureTargetBounty is Bounty {\n  function deployContract() internal returns (address) {\n    return new SecureTargetMock();\n  }\n}\n",
  "sourcePath": "/Users/kiendn/coding/tutorial/truffle/deploy_contract_without_cmd/contracts/mocks/SecureTargetBounty.sol",
  "compiler": {
    "name": "solc",
    "version": "0.4.19+commit.c4cbbb05.Emscripten.clang"
  },
  "schemaVersion": "2.0.0",
  "updatedAt": "2018-04-13T08:54:57.339Z"
}