{
  "contractName": "SIMDepositRelease",
  "abi": [
    {
      "inputs": [
        {
          "name": "_tokenAddress",
          "type": "address"
        },
        {
          "name": "_eventAddress",
          "type": "address"
        },
        {
          "name": "_storageAddress",
          "type": "address"
        }
      ],
      "payable": false,
      "stateMutability": "nonpayable",
      "type": "constructor"
    },
    {
      "payable": true,
      "stateMutability": "payable",
      "type": "fallback"
    },
    {
      "constant": false,
      "inputs": [
        {
          "name": "_sender",
          "type": "address"
        },
        {
          "name": "_receiver",
          "type": "address"
        },
        {
          "name": "_amount",
          "type": "uint256"
        }
      ],
      "name": "callTransferFrom",
      "outputs": [
        {
          "name": "",
          "type": "bool"
        }
      ],
      "payable": false,
      "stateMutability": "nonpayable",
      "type": "function"
    },
    {
      "constant": false,
      "inputs": [
        {
          "name": "_from",
          "type": "address"
        },
        {
          "name": "_to",
          "type": "address"
        },
        {
          "name": "_amount",
          "type": "uint256"
        }
      ],
      "name": "onDeposit",
      "outputs": [
        {
          "name": "",
          "type": "bool"
        }
      ],
      "payable": false,
      "stateMutability": "nonpayable",
      "type": "function"
    },
    {
      "constant": false,
      "inputs": [
        {
          "name": "_amount",
          "type": "uint256"
        }
      ],
      "name": "deposit",
      "outputs": [],
      "payable": true,
      "stateMutability": "payable",
      "type": "function"
    },
    {
      "constant": false,
      "inputs": [
        {
          "name": "_receiver",
          "type": "address"
        },
        {
          "name": "_amount",
          "type": "uint256"
        }
      ],
      "name": "release",
      "outputs": [],
      "payable": true,
      "stateMutability": "payable",
      "type": "function"
    },
    {
      "constant": true,
      "inputs": [],
      "name": "getStorageAddress",
      "outputs": [
        {
          "name": "",
          "type": "address"
        }
      ],
      "payable": false,
      "stateMutability": "view",
      "type": "function"
    }
  ],
  "bytecode": "0x6060604052341561000f57600080fd5b60405160608061071083398101604052808051906020019091908051906020019091908051906020019091905050826000806101000a81548173ffffffffffffffffffffffffffffffffffffffff021916908373ffffffffffffffffffffffffffffffffffffffff16021790555081600160006101000a81548173ffffffffffffffffffffffffffffffffffffffff021916908373ffffffffffffffffffffffffffffffffffffffff16021790555080600260006101000a81548173ffffffffffffffffffffffffffffffffffffffff021916908373ffffffffffffffffffffffffffffffffffffffff1602179055505050506105ff806101116000396000f30060606040526004361061006d576000357c0100000000000000000000000000000000000000000000000000000000900463ffffffff1680630357371d1461006f57806332132960146100a6578063393a4d341461011f578063412c6d5014610174578063b6b55f25146101ed575b005b6100a4600480803573ffffffffffffffffffffffffffffffffffffffff16906020019091908035906020019091905050610205565b005b34156100b157600080fd5b610105600480803573ffffffffffffffffffffffffffffffffffffffff1690602001909190803573ffffffffffffffffffffffffffffffffffffffff16906020019091908035906020019091905050610225565b604051808215151515815260200191505060405180910390f35b341561012a57600080fd5b61013261039b565b604051808273ffffffffffffffffffffffffffffffffffffffff1673ffffffffffffffffffffffffffffffffffffffff16815260200191505060405180910390f35b341561017f57600080fd5b6101d3600480803573ffffffffffffffffffffffffffffffffffffffff1690602001909190803573ffffffffffffffffffffffffffffffffffffffff169060200190919080359060200190919050506103c5565b604051808215151515815260200191505060405180910390f35b6102036004808035906020019091905050610564565b005b6000670de0b6b3a76400008202905061021f338483610225565b50505050565b60008060009054906101000a900473ffffffffffffffffffffffffffffffffffffffff1673ffffffffffffffffffffffffffffffffffffffff1660405180807f7472616e7366657246726f6d28616464726573732c616464726573732c75696e81526020017f7432353629000000000000000000000000000000000000000000000000000000815250602501905060405180910390207c010000000000000000000000000000000000000000000000000000000090048585856040518463ffffffff167c0100000000000000000000000000000000000000000000000000000000028152600401808473ffffffffffffffffffffffffffffffffffffffff1673ffffffffffffffffffffffffffffffffffffffff1681526020018373ffffffffffffffffffffffffffffffffffffffff1673ffffffffffffffffffffffffffffffffffffffff168152602001828152602001935050505060006040518083038160008761646e5a03f19250505090509392505050565b6000600260009054906101000a900473ffffffffffffffffffffffffffffffffffffffff16905090565b6000600160009054906101000a900473ffffffffffffffffffffffffffffffffffffffff1673ffffffffffffffffffffffffffffffffffffffff1660405180807f6f6e4465706f73697428737472696e672c75696e743235362c6164647265737381526020017f2c61646472657373290000000000000000000000000000000000000000000000815250602901905060405180910390207c010000000000000000000000000000000000000000000000000000000090048386866040518463ffffffff167c010000000000000000000000000000000000000000000000000000000002815260040180807f53543500000000000000000000000000000000000000000000000000000000008152506020018481526020018373ffffffffffffffffffffffffffffffffffffffff1673ffffffffffffffffffffffffffffffffffffffff1681526020018273ffffffffffffffffffffffffffffffffffffffff1673ffffffffffffffffffffffffffffffffffffffff168152602001935050505060006040518083038160008761646e5a03f19250505090509392505050565b6000670de0b6b3a7640000820290506105a033600260009054906101000a900473ffffffffffffffffffffffffffffffffffffffff1683610225565b506105ce33600260009054906101000a900473ffffffffffffffffffffffffffffffffffffffff16836103c5565b5050505600a165627a7a723058206525ad2169583f0ae15182eda0b61246892549c9235be7e1a7cbf849b42930e90029",
  "source": "pragma solidity ^0.4.18;\n\n\ncontract SIMDepositRelease {\n\n\taddress tokenAddress;\n\taddress eventAddress;\n\taddress storageAddress;\n\n    function() payable {}\n\n    function SIMDepositRelease(address _tokenAddress, address _eventAddress, address _storageAddress) {\n    \ttokenAddress = _tokenAddress;\n    \teventAddress = _eventAddress;\n    \tstorageAddress = _storageAddress;\n    }\n\n    function callTransferFrom(address _sender, address _receiver, uint256 _amount) returns (bool) {\n    \treturn tokenAddress.call(bytes4(keccak256(\"transferFrom(address,address,uint256)\")), _sender, _receiver, _amount);\n    }\n\n    function onDeposit(address _from, address _to, uint256 _amount) public returns (bool) {\n    \treturn eventAddress.call(bytes4(keccak256(\"onDeposit(string,uint256,address,address)\")), \"ST5\", _amount, _from, _to);\n    }\n\n\tfunction deposit(uint256 _amount) public payable {\n        uint256 amount = _amount * 10 ** 18;\n    \tcallTransferFrom(msg.sender, storageAddress, amount);\n    \tonDeposit(msg.sender, storageAddress, amount);\n\t}\n\n\tfunction release(address _receiver, uint256 _amount) public payable {\n\t\tuint256 amount = _amount * 10 ** 18;\n\t\tcallTransferFrom(msg.sender, _receiver, amount);\n\t}\n\n\tfunction getStorageAddress() public view returns (address) {\n\t\treturn storageAddress;\n\t}\n}\n",
  "sourcePath": "/Users/kiendn/coding/tutorial/truffle/deploy_contract_without_cmd/contracts/SIMDepositRelease.sol",
  "compiler": {
    "name": "solc",
    "version": "0.4.19+commit.c4cbbb05.Emscripten.clang"
  },
  "schemaVersion": "2.0.0",
  "updatedAt": "2018-04-18T20:23:52.040Z"
}