{
  "contractName": "SIMDepositRelease",
  "abi": [
    {
      "inputs": [
        {
          "name": "_tokenAddress",
          "type": "address"
        },
        {
          "name": "_eventAddress",
          "type": "address"
        },
        {
          "name": "_storageAddress",
          "type": "address"
        },
        {
          "name": "_owner",
          "type": "address"
        }
      ],
      "payable": false,
      "stateMutability": "nonpayable",
      "type": "constructor"
    },
    {
      "payable": true,
      "stateMutability": "payable",
      "type": "fallback"
    },
    {
      "constant": false,
      "inputs": [
        {
          "name": "_sender",
          "type": "address"
        },
        {
          "name": "_receiver",
          "type": "address"
        },
        {
          "name": "_amount",
          "type": "uint256"
        }
      ],
      "name": "callTransferFrom",
      "outputs": [
        {
          "name": "",
          "type": "bool"
        }
      ],
      "payable": false,
      "stateMutability": "nonpayable",
      "type": "function"
    },
    {
      "constant": false,
      "inputs": [
        {
          "name": "_event",
          "type": "uint256"
        },
        {
          "name": "_type",
          "type": "uint256"
        },
        {
          "name": "_from",
          "type": "address"
        },
        {
          "name": "_to",
          "type": "address"
        },
        {
          "name": "_amount",
          "type": "uint256"
        }
      ],
      "name": "onChange",
      "outputs": [
        {
          "name": "",
          "type": "bool"
        }
      ],
      "payable": false,
      "stateMutability": "nonpayable",
      "type": "function"
    },
    {
      "constant": false,
      "inputs": [
        {
          "name": "_type",
          "type": "uint256"
        },
        {
          "name": "_receiver",
          "type": "address"
        },
        {
          "name": "_amount",
          "type": "uint256"
        }
      ],
      "name": "deposit",
      "outputs": [],
      "payable": false,
      "stateMutability": "nonpayable",
      "type": "function"
    },
    {
      "constant": false,
      "inputs": [
        {
          "name": "_receiver",
          "type": "address"
        },
        {
          "name": "_amount",
          "type": "uint256"
        },
        {
          "name": "_type",
          "type": "uint256"
        }
      ],
      "name": "release",
      "outputs": [],
      "payable": false,
      "stateMutability": "nonpayable",
      "type": "function"
    },
    {
      "constant": false,
      "inputs": [
        {
          "name": "_type",
          "type": "uint256"
        }
      ],
      "name": "getLatestRate",
      "outputs": [
        {
          "name": "",
          "type": "uint256"
        }
      ],
      "payable": false,
      "stateMutability": "nonpayable",
      "type": "function"
    },
    {
      "constant": false,
      "inputs": [
        {
          "name": "_type",
          "type": "uint256"
        },
        {
          "name": "_idx",
          "type": "uint256"
        }
      ],
      "name": "getRate",
      "outputs": [
        {
          "name": "",
          "type": "uint256"
        }
      ],
      "payable": false,
      "stateMutability": "nonpayable",
      "type": "function"
    },
    {
      "constant": false,
      "inputs": [
        {
          "name": "_type",
          "type": "uint256"
        }
      ],
      "name": "getRates",
      "outputs": [
        {
          "name": "",
          "type": "uint256[]"
        }
      ],
      "payable": false,
      "stateMutability": "nonpayable",
      "type": "function"
    },
    {
      "constant": false,
      "inputs": [
        {
          "name": "_code",
          "type": "uint256"
        },
        {
          "name": "_newRate",
          "type": "uint256"
        }
      ],
      "name": "updateRating",
      "outputs": [],
      "payable": false,
      "stateMutability": "nonpayable",
      "type": "function"
    }
  ],
  "bytecode": "0x6060604052341561000f57600080fd5b604051608080610b3e83398101604052808051906020019091908051906020019091908051906020019091908051906020019091905050836000806101000a81548173ffffffffffffffffffffffffffffffffffffffff021916908373ffffffffffffffffffffffffffffffffffffffff16021790555082600160006101000a81548173ffffffffffffffffffffffffffffffffffffffff021916908373ffffffffffffffffffffffffffffffffffffffff16021790555081600260006101000a81548173ffffffffffffffffffffffffffffffffffffffff021916908373ffffffffffffffffffffffffffffffffffffffff16021790555080600460006101000a81548173ffffffffffffffffffffffffffffffffffffffff021916908373ffffffffffffffffffffffffffffffffffffffff160217905550505050506109e28061015c6000396000f30060606040526004361061008e576000357c0100000000000000000000000000000000000000000000000000000000900463ffffffff168063081802b1146100905780630d70e7e314610108578063321329601461014857806345f59c46146101c157806350cd4290146101f8578063bc157ac114610283578063f297be66146102ce578063fac8243914610319575b005b341561009b57600080fd5b6100b16004808035906020019091905050610345565b6040518080602001828103825283818151815260200191508051906020019060200280838360005b838110156100f45780820151818401526020810190506100d9565b505050509050019250505060405180910390f35b341561011357600080fd5b61013260048080359060200190919080359060200190919050506103b6565b6040518082815260200191505060405180910390f35b341561015357600080fd5b6101a7600480803573ffffffffffffffffffffffffffffffffffffffff1690602001909190803573ffffffffffffffffffffffffffffffffffffffff16906020019091908035906020019091905050610410565b604051808215151515815260200191505060405180910390f35b34156101cc57600080fd5b6101e26004808035906020019091905050610536565b6040518082815260200191505060405180910390f35b341561020357600080fd5b610269600480803590602001909190803590602001909190803573ffffffffffffffffffffffffffffffffffffffff1690602001909190803573ffffffffffffffffffffffffffffffffffffffff16906020019091908035906020019091905050610584565b604051808215151515815260200191505060405180910390f35b341561028e57600080fd5b6102cc600480803590602001909190803573ffffffffffffffffffffffffffffffffffffffff1690602001909190803590602001909190505061070d565b005b34156102d957600080fd5b610317600480803573ffffffffffffffffffffffffffffffffffffffff16906020019091908035906020019091908035906020019091905050610771565b005b341561032457600080fd5b61034360048080359060200190919080359060200190919050506108b7565b005b61034d610951565b600360008381526020019081526020016000208054806020026020016040519081016040528092919081815260200182805480156103aa57602002820191906000526020600020905b815481526020019060010190808311610396575b50505050509050919050565b60006003600084815260200190815260200160002080549050821015156103dc57600080fd5b60036000848152602001908152602001600020828154811015156103fc57fe5b906000526020600020900154905092915050565b60008060009054906101000a900473ffffffffffffffffffffffffffffffffffffffff1673ffffffffffffffffffffffffffffffffffffffff166323b872dd8585856000604051602001526040518463ffffffff167c0100000000000000000000000000000000000000000000000000000000028152600401808473ffffffffffffffffffffffffffffffffffffffff1673ffffffffffffffffffffffffffffffffffffffff1681526020018373ffffffffffffffffffffffffffffffffffffffff1673ffffffffffffffffffffffffffffffffffffffff1681526020018281526020019350505050602060405180830381600087803b151561051257600080fd5b6102c65a03f1151561052357600080fd5b5050506040518051905090509392505050565b600060036000838152602001908152602001600020600160036000858152602001908152602001600020805490500381548110151561057157fe5b9060005260206000209001549050919050565b6000600160009054906101000a900473ffffffffffffffffffffffffffffffffffffffff1673ffffffffffffffffffffffffffffffffffffffff1660405180807f6f6e4368616e67652875696e743235362c75696e743235362c6164647265737381526020017f2c616464726573732c75696e7432353629000000000000000000000000000000815250603101905060405180910390207c0100000000000000000000000000000000000000000000000000000000900487878787876040518663ffffffff167c0100000000000000000000000000000000000000000000000000000000028152600401808681526020018581526020018473ffffffffffffffffffffffffffffffffffffffff1673ffffffffffffffffffffffffffffffffffffffff1681526020018373ffffffffffffffffffffffffffffffffffffffff1673ffffffffffffffffffffffffffffffffffffffff1681526020018281526020019550505050505060006040518083038160008761646e5a03f192505050905095945050505050565b60008060008311151561071f57600080fd5b670de0b6b3a76400008302915061075933600260009054906101000a900473ffffffffffffffffffffffffffffffffffffffff1684610410565b9050610769600186338786610584565b505050505050565b600080600460009054906101000a900473ffffffffffffffffffffffffffffffffffffffff1673ffffffffffffffffffffffffffffffffffffffff163373ffffffffffffffffffffffffffffffffffffffff161415156107d057600080fd5b60036000848152602001908152602001600020600160036000868152602001908152602001600020805490500381548110151561080957fe5b906000526020600020900154915060008211151561082657600080fd5b60008411151561083557600080fd5b6103e88281151561084257fe5b04670de0b6b3a7640000850202905061087e600260009054906101000a900473ffffffffffffffffffffffffffffffffffffffff168683610410565b506108af600284600260009054906101000a900473ffffffffffffffffffffffffffffffffffffffff168885610584565b505050505050565b600460009054906101000a900473ffffffffffffffffffffffffffffffffffffffff1673ffffffffffffffffffffffffffffffffffffffff163373ffffffffffffffffffffffffffffffffffffffff1614151561091357600080fd5b6003600083815260200190815260200160002080548060010182816109389190610965565b9160005260206000209001600083909190915055505050565b602060405190810160405280600081525090565b81548183558181151161098c5781836000526020600020918201910161098b9190610991565b5b505050565b6109b391905b808211156109af576000816000905550600101610997565b5090565b905600a165627a7a723058204bc4988b17727550845b2c98e4d23a5a3f621abad273cc994d6f297b36758de50029",
  "source": "pragma solidity ^0.4.18;\n\n\ncontract SimpleTokenI {\n\tfunction allowance(address owner, address spender) public view returns (uint256) { }\n\tfunction transferFrom(address from, address to, uint256 value) public returns (bool) { }\n\tfunction approve(address spender, uint256 value) public returns (bool) { }\n\n\tfunction totalSupply() public view returns (uint256) { }\n\tfunction balanceOf(address who) public view returns (uint256) { }\n\tfunction transfer(address to, uint256 value) public returns (bool) { }\n\n\tevent Transfer(address indexed from, address indexed to, uint256 value);\n\tevent Approval(address indexed owner, address indexed spender, uint256 value);\n}\n\n\ncontract SIMDepositRelease {\n\n\tSimpleTokenI tokenAddress;\n\taddress eventAddress;\n\taddress storageAddress;\n\tmapping(uint256 => uint256[]) rates;\n\taddress owner;\n\n\tmodifier onlyadmin {\n\t\tif (msg.sender != owner) throw;\n\t\t_;\n    }\n\n    function() payable {}\n\n    function SIMDepositRelease(address _tokenAddress, address _eventAddress, address _storageAddress, address _owner) {\n    \ttokenAddress = SimpleTokenI(_tokenAddress);\n    \teventAddress = _eventAddress;\n    \tstorageAddress = _storageAddress;\n\t\towner = _owner;\n    }\n\n    function callTransferFrom(address _sender, address _receiver, uint256 _amount) returns (bool) {\n    \treturn tokenAddress.transferFrom(_sender, _receiver, _amount);\n    \t// return tokenAddress.call(bytes4(keccak256(\"transferFrom(address,address,uint256)\")), _sender, _receiver, _amount);\n    }\n\n    function onChange(uint256 _event, uint256 _type, address _from, address _to, uint256 _amount) public returns (bool) {\n    \treturn eventAddress.call(bytes4(keccak256(\"onChange(uint256,uint256,address,address,uint256)\")), _event, _type, _from, _to, _amount);\n    }\n\n\tfunction deposit(uint256 _type, address _receiver, uint256 _amount) public {\n\n\t\trequire(_amount > 0);\n\n        uint256 amount = _amount * 10 ** 18;\n    \tbool result = callTransferFrom(msg.sender, storageAddress, amount);\n    \tonChange(1, _type, msg.sender, _receiver, amount);\n\t}\n\n\tfunction release(address _receiver, uint256 _amount, uint256 _type) public onlyadmin {\n\t\t// _type: 1 is eth, 2 is this\n\t\tuint256 rate = rates[_type][rates[_type].length - 1];\n\t\t\n\t\trequire(rate > 0);\n\t\trequire(_amount > 0);\n\n\t\tuint256 amount = (_amount * 10 ** 18) * (rate/1000);\n\n\t\tcallTransferFrom(storageAddress, _receiver, amount);\n\t\tonChange(2, _type, storageAddress, _receiver, amount);\n\t}\n\n\tfunction getLatestRate(uint256 _type) public returns (uint256) {\n\t\treturn rates[_type][rates[_type].length - 1];\n\t}\n\n\tfunction getRate(uint256 _type, uint256 _idx) public returns (uint256){\n\t\trequire(_idx < rates[_type].length);\n\t\treturn rates[_type][_idx];\n\t}\n\n\tfunction getRates(uint256 _type) public returns (uint256[]) {\n\t\treturn rates[_type];\n\t}\n\n\tfunction updateRating(uint256 _code, uint256 _newRate) public onlyadmin {\n\t\trates[_code].push(_newRate);\n\t}\n}\n",
  "sourcePath": "/Users/kiendn/coding/tutorial/truffle/deploy_contract_without_cmd/contracts/SIMDepositRelease.sol",
  "compiler": {
    "name": "solc",
    "version": "0.4.19+commit.c4cbbb05.Emscripten.clang"
  },
  "schemaVersion": "2.0.0",
  "updatedAt": "2018-05-13T05:53:56.616Z"
}