{
  "contractName": "SIMDepositRelease",
  "abi": [
    {
      "inputs": [
        {
          "name": "_tokenAddress",
          "type": "address"
        },
        {
          "name": "_eventAddress",
          "type": "address"
        },
        {
          "name": "_storageAddress",
          "type": "address"
        }
      ],
      "payable": false,
      "stateMutability": "nonpayable",
      "type": "constructor"
    },
    {
      "payable": true,
      "stateMutability": "payable",
      "type": "fallback"
    },
    {
      "constant": false,
      "inputs": [
        {
          "name": "_sender",
          "type": "address"
        },
        {
          "name": "_receiver",
          "type": "address"
        },
        {
          "name": "_amount",
          "type": "uint256"
        }
      ],
      "name": "callTransferFrom",
      "outputs": [
        {
          "name": "",
          "type": "bool"
        }
      ],
      "payable": false,
      "stateMutability": "nonpayable",
      "type": "function"
    },
    {
      "constant": false,
      "inputs": [
        {
          "name": "_event",
          "type": "uint256"
        },
        {
          "name": "_type",
          "type": "uint256"
        },
        {
          "name": "_from",
          "type": "address"
        },
        {
          "name": "_to",
          "type": "address"
        },
        {
          "name": "_amount",
          "type": "uint256"
        }
      ],
      "name": "onChange",
      "outputs": [
        {
          "name": "",
          "type": "bool"
        }
      ],
      "payable": false,
      "stateMutability": "nonpayable",
      "type": "function"
    },
    {
      "constant": false,
      "inputs": [
        {
          "name": "_type",
          "type": "uint256"
        },
        {
          "name": "_receiver",
          "type": "address"
        },
        {
          "name": "_amount",
          "type": "uint256"
        }
      ],
      "name": "deposit",
      "outputs": [],
      "payable": true,
      "stateMutability": "payable",
      "type": "function"
    },
    {
      "constant": false,
      "inputs": [
        {
          "name": "_receiver",
          "type": "address"
        },
        {
          "name": "_amount",
          "type": "uint256"
        }
      ],
      "name": "release",
      "outputs": [],
      "payable": true,
      "stateMutability": "payable",
      "type": "function"
    }
  ],
  "bytecode": "0x6060604052341561000f57600080fd5b6040516060806106e083398101604052808051906020019091908051906020019091908051906020019091905050826000806101000a81548173ffffffffffffffffffffffffffffffffffffffff021916908373ffffffffffffffffffffffffffffffffffffffff16021790555081600160006101000a81548173ffffffffffffffffffffffffffffffffffffffff021916908373ffffffffffffffffffffffffffffffffffffffff16021790555080600260006101000a81548173ffffffffffffffffffffffffffffffffffffffff021916908373ffffffffffffffffffffffffffffffffffffffff1602179055505050506105cf806101116000396000f300606060405260043610610062576000357c0100000000000000000000000000000000000000000000000000000000900463ffffffff1680630357371d14610064578063321329601461009b57806350cd429014610114578063bc157ac11461019f575b005b610099600480803573ffffffffffffffffffffffffffffffffffffffff169060200190919080359060200190919050506101df565b005b34156100a657600080fd5b6100fa600480803573ffffffffffffffffffffffffffffffffffffffff1690602001909190803573ffffffffffffffffffffffffffffffffffffffff16906020019091908035906020019091905050610252565b604051808215151515815260200191505060405180910390f35b341561011f57600080fd5b610185600480803590602001909190803590602001909190803573ffffffffffffffffffffffffffffffffffffffff1690602001909190803573ffffffffffffffffffffffffffffffffffffffff169060200190919080359060200190919050506103c8565b604051808215151515815260200191505060405180910390f35b6101dd600480803590602001909190803573ffffffffffffffffffffffffffffffffffffffff16906020019091908035906020019091905050610551565b005b6000670de0b6b3a76400008202905061021b600260009054906101000a900473ffffffffffffffffffffffffffffffffffffffff168483610252565b5061024c600280600260009054906101000a900473ffffffffffffffffffffffffffffffffffffffff1686856103c8565b50505050565b60008060009054906101000a900473ffffffffffffffffffffffffffffffffffffffff1673ffffffffffffffffffffffffffffffffffffffff1660405180807f7472616e7366657246726f6d28616464726573732c616464726573732c75696e81526020017f7432353629000000000000000000000000000000000000000000000000000000815250602501905060405180910390207c010000000000000000000000000000000000000000000000000000000090048585856040518463ffffffff167c0100000000000000000000000000000000000000000000000000000000028152600401808473ffffffffffffffffffffffffffffffffffffffff1673ffffffffffffffffffffffffffffffffffffffff1681526020018373ffffffffffffffffffffffffffffffffffffffff1673ffffffffffffffffffffffffffffffffffffffff168152602001828152602001935050505060006040518083038160008761646e5a03f19250505090509392505050565b6000600160009054906101000a900473ffffffffffffffffffffffffffffffffffffffff1673ffffffffffffffffffffffffffffffffffffffff1660405180807f6f6e4368616e67652875696e743235362c75696e743235362c6164647265737381526020017f2c616464726573732c75696e7432353629000000000000000000000000000000815250603101905060405180910390207c0100000000000000000000000000000000000000000000000000000000900487878787876040518663ffffffff167c0100000000000000000000000000000000000000000000000000000000028152600401808681526020018581526020018473ffffffffffffffffffffffffffffffffffffffff1673ffffffffffffffffffffffffffffffffffffffff1681526020018373ffffffffffffffffffffffffffffffffffffffff1673ffffffffffffffffffffffffffffffffffffffff1681526020018281526020019550505050505060006040518083038160008761646e5a03f192505050905095945050505050565b6000670de0b6b3a76400008202905061058d33600260009054906101000a900473ffffffffffffffffffffffffffffffffffffffff1683610252565b5061059c6001853386856103c8565b50505050505600a165627a7a723058208deae8bb00e14bfb7f9145f05c6ab986101da2b421bc64db0f7cabac07270d170029",
  "source": "pragma solidity ^0.4.18;\n\n\ncontract SIMDepositRelease {\n\n\taddress tokenAddress;\n\taddress eventAddress;\n\taddress storageAddress;\n\n    function() payable {}\n\n    function SIMDepositRelease(address _tokenAddress, address _eventAddress, address _storageAddress) {\n    \ttokenAddress = _tokenAddress;\n    \teventAddress = _eventAddress;\n    \tstorageAddress = _storageAddress;\n    }\n\n    function callTransferFrom(address _sender, address _receiver, uint256 _amount) returns (bool) {\n    \treturn tokenAddress.call(bytes4(keccak256(\"transferFrom(address,address,uint256)\")), _sender, _receiver, _amount);\n    }\n\n    function onChange(uint256 _event, uint256 _type, address _from, address _to, uint256 _amount) public returns (bool) {\n    \treturn eventAddress.call(bytes4(keccak256(\"onChange(uint256,uint256,address,address,uint256)\")), _event, _type, _from, _to, _amount);\n    }\n\n\tfunction deposit(uint256 _type, address _receiver, uint256 _amount) public payable {\n        uint256 amount = _amount * 10 ** 18;\n    \tcallTransferFrom(msg.sender, storageAddress, amount);\n    \tonChange(1, _type, msg.sender, _receiver, amount);\n\t}\n\n\tfunction release(address _receiver, uint256 _amount) public payable {\n\t\t// _type: 1 is eth, 2 is this\n\t\tuint256 amount = _amount * 10 ** 18;\n\t\tcallTransferFrom(storageAddress, _receiver, amount);\n\t\tonChange(2, 2, storageAddress, _receiver, amount);\n\t}\n}\n",
  "sourcePath": "/Users/kiendn/coding/tutorial/truffle/deploy_contract_without_cmd/contracts/SIMDepositRelease.sol",
  "compiler": {
    "name": "solc",
    "version": "0.4.19+commit.c4cbbb05.Emscripten.clang"
  },
  "schemaVersion": "2.0.0",
  "updatedAt": "2018-04-20T12:33:25.324Z"
}