{
  "contractName": "SimpleTokenI",
  "abi": [
    {
      "constant": false,
      "inputs": [
        {
          "name": "_from",
          "type": "address"
        },
        {
          "name": "_to",
          "type": "address"
        },
        {
          "name": "_amount",
          "type": "uint256"
        }
      ],
      "name": "transferFrom",
      "outputs": [
        {
          "name": "",
          "type": "bool"
        }
      ],
      "payable": false,
      "stateMutability": "nonpayable",
      "type": "function"
    }
  ],
  "bytecode": "0x6060604052341561000f57600080fd5b60ef8061001d6000396000f300606060405260043610603f576000357c0100000000000000000000000000000000000000000000000000000000900463ffffffff16806323b872dd146044575b600080fd5b3415604e57600080fd5b60a0600480803573ffffffffffffffffffffffffffffffffffffffff1690602001909190803573ffffffffffffffffffffffffffffffffffffffff1690602001909190803590602001909190505060ba565b604051808215151515815260200191505060405180910390f35b600093925050505600a165627a7a723058206e5f7103b619a442eb8be55c1ccdf3d7f720a797a9f6ef5da168462bf8a68e800029",
  "source": "pragma solidity ^0.4.18;\n\n\ncontract SimpleTokenI {\n\tfunction transferFrom(address _from, address _to, uint256 _amount) public returns (bool) {}\n}\n\n\ncontract SIMDepositRelease {\n\n\tSimpleTokenI st;\n\taddress storageAddress;\n\tuint256 balance;\n    mapping( address => uint256 ) log;\n\n    function() payable {\n\n    }\n\n    function SIMDepositRelease(address _st, address _storageAddress) {\n    \tst = SimpleTokenI(_st);\n    \tstorageAddress = _storageAddress;\n    }\n\n    function callTransferFrom(address _sender, address _receiver, uint256 _amount) {\n    \tst.transferFrom(_sender, _receiver, _amount);\n    \t// st.call(bytes4(keccak256(\"transferFrom(address,address,uint256)\")), _sender, _receiver, _amount);\n    }\n\n\tfunction deposit(uint256 _amount) public payable {\n\n        var amount = _amount * 10 ** 18;\n        callTransferFrom(msg.sender, storageAddress, amount);\n\n        log[msg.sender] += amount;\n        balance += amount;\n\n\t}\n\n\tfunction transfer(address _sender, address _receiver, uint256 _amount) public payable {\n\n\t\tvar amount = _amount * 10 ** 18;\n\t\trequire(log[_sender] > 0 || log[_sender] >= amount);\n\n\t\tlog[_sender] -= amount; \n\t\tbalance -= amount;\n\t\tcallTransferFrom(storageAddress, _receiver, amount);\n\t}\n}",
  "sourcePath": "/Users/kiendn/coding/tutorial/truffle/deploy_contract_without_cmd/contracts/SIMDepositRelease.sol",
  "compiler": {
    "name": "solc",
    "version": "0.4.19+commit.c4cbbb05.Emscripten.clang"
  },
  "schemaVersion": "2.0.0",
  "updatedAt": "2018-04-17T18:03:13.511Z"
}